:0400000007EF00F016
:100008004B8275ED00F0C2EF01F020EE2AF010EE01
:1000180060F00F0EDBCFE3FFE806FCE220EE3AF0DB
:1000280010EE70F0070EDBCFE3FFE806FCE2000EEF
:10003800956E000E836E000E00017C6F000E7B6FC4
:100048007CBF06D07C514AE1080E7B5DD8B046D013
:10005800700E7B25D96E000E7C21DA6EDF506C6F36
:10006800600E146E000E156E100E166ED8EC01F0B0
:10007800000E00017E6F000E7D6F7EBF06D07E51A0
:1000880011E1030E7D5DD8B00DD0780E7D25D96EB7
:10009800000E7E21DA6E39EC02F0DF6E00017D4B36
:1000A8007E2BEBD7020E7A19D8A402D00F0E04D0FB
:1000B8007A05D8A403D0F00E836E01D08368070EAA
:1000C800196E580E186E5A0EE82EFED7182EFCD749
:1000D800192EFAD700017B4B7C2BB2D7000E836E0A
:1000E80012000600FACF01F0FBCF02F0E9CF03F0CF
:1000F800EACF04F0E1CF05F0E2CF06F0D9CF07F060
:10010800DACF08F0F3CF09F0F4CF0AF0F6CF0BF00E
:10011800F7CF0CF0F8CF0DF0F5CF0EF04BC00FF085
:100128004CC010F04DC011F04EC012F0F2BAF2A45B
:1001380003D0010E4A6EF29412C04EF011C04DF079
:1001480010C04CF00FC04BF00EC0F5FF0DC0F8FF0B
:100158000CC0F7FF0BC0F6FF0AC0F4FF09C0F3FF9D
:1001680008C0DAFF07C0D9FF06C0E2FF05C0E1FFFB
:1001780004C0EAFF03C0E9FF02C0FBFF01C0FAFFA9
:100188004B92110046C01AF047C01BF048C01CF043
:1001980049C01DF0000E956E000E836E1A0E146E87
:1001A800000E156E040E166ED8EC01F0000E216ECE
:1001B800000E206E21BE06D0215010E1020E205CF8
:1001C800D8B00CD01E0E2024D96E000E2120DA6E75
:1001D80039EC02F0DF6E204A212AECD71E50D8A451
:1001E80002D0030E09D0820E1E18D8B404D0830E94
:1001F8001E18D8A403D0C00E836E01D083680D0EDC
:10020800196EAF0E186EB60EE82EFED7182EFCD754
:10021800192EFAD700D0000E836E120042C01AF0D1
:1002280043C01BF044C01CF045C01DF0000E956E85
:10023800000E836E1A0E146E000E156E040E166EE6
:10024800D8EC01F0000E216E000E206E21BE06D003
:10025800215010E1020E205CD8B00CD01E0E2024D4
:10026800D96E000E2120DA6E39EC02F0DF6E204ADA
:10027800212AECD7800E1E18D8A402D00A0E07D067
:10028800870E1E18D8A402D0A00E01D0AA0E836E25
:100298000D0E196EAF0E186EB60EE82EFED7182E7C
:1002A800FCD7192EFAD700D0000E836E1200010E6B
:1002B80033EC02F0000E33EC02F039EC02F0256E5C
:1002C80039EC02F0266E000E276E0CD02750010D77
:1002D800150EF324D96E000EF420DA6E39EC02F014
:1002E800DF6E272A2650275CD8A0F0D7000E276E8D
:1002F80013D02750010D150EF324D96E000EF420EB
:10030800DA6EDF50836EE40E146E440EE82EFED7CC
:10031800142EFCD700D0272A2650275CD8B012000C
:10032800E8D7000E956E000E836EFCEC01F027EC0A
:1003380002F0000E296E0BD00BEC02F0296EE40ED1
:10034800286E440EE82EFED7282EFCD700D0550E76
:100358002918D8A4F1D75BEC01F0E40E286E440EFE
:10036800E82EFED7282EFCD700D009EC00F0C6EC0A
:1003780000F012EC01F0070E836EFDD7D80EF66E72
:10038800030EF76E000EF86E00EE2AF010EE20F065
:100398000900F5CFEEFFE550E150FAE14A6A4B90CB
:1003A8004B92000195EF01F0000E176E0CD017501C
:1003B800010DF3501424D96EF4501520DA6EDF5075
:1003C80033EC02F0172A1650175CD8B01200EFD79A
:1003D800070E03A100F801180020606000003F012B
:1003E80000FC7C3C5C6C747004022607020202006C
:1003F800000EAC6E000EAB6EAB88AC84AB967E86FE
:100408002A0EAF6EAC8AAB8E949C948E1200550E59
:10041800156E155033EC02F00F0E836E19EC02F0D6
:10042800146EF00E836E145012009EBA03D04A5018
:10043800D8B4FBD74A04D8A404D0000E4A6E0F0ED5
:100448001200AE501200D59AD550F80B0109D56E9E
:10045800D596D59CF28EF28CF28AD58E1200136E48
:100468009EA8FED713C0ADFF12009EAAFED7AE50BD
:02047800120070
:020000040020DA
:08000000FFFFFFFFFFFFFFFF00
:020000040030CA
:0E000000FF021F1EF38381FFFFC0FFE0FF40E1
:00000001FF
